:100000000C9462000C948A000C948A000C948A0070
:100010000C948A000C948A000C948A000C948A0038
:100020000C948A000C948A000C948A000C948A0028
:100030000C948A000C948A000C948A000C948A0018
:100040000C9449020C948A000C94B9020C9493020B
:100050000C948A000C948A000C948A000C948A00F8
:100060000C948A000C948A000000000023002600F3
:10007000290000000000240027002A0000000000E2
:10008000250028002B0004040404040404040202D4
:100090000202020203030303030301020408102007
:1000A0004080010204081020010204081020000012
:1000B0000008000201000003040700000000000027
:1000C0000000FC0D11241FBECFEFD8E0DEBFCDBF76
:1000D00011E0A0E0B1E0ECE9F2E202C005900D927F
:1000E000A63EB107D9F723E0A6EEB1E001C01D920C
:1000F000A230B207E1F710E0C2E6D0E004C02197D9
:10010000FE010E944111C136D107C9F70E94F706CE
:100110000C944C110C940000CF92DF92EF92FF925E
:100120000F931F93CF93DF936C017A018B01C0E093
:10013000D0E0CE15DF0581F0D8016D918D01D6019B
:10014000ED91FC910190F081E02DC6010995892B7C
:1001500011F02196EECF7E01C701DF91CF911F9163
:100160000F91FF90EF90DF90CF900895FC01538D99
:10017000448D252F30E0842F90E0821B930B541781
:1001800010F0CF96089501970895FC01918D828D0E
:10019000981761F0828DDF01A80FB11D5D968C91DB
:1001A000928D9F5F9F73928F90E008958FEF9FEFE6
:1001B0000895FC01918D828D981731F0828DE80FA2
:1001C000F11D858D90E008958FEF9FEF0895FC015C
:1001D000918D228D892F90E0805C9F4F821B910929
:1001E0008F739927089585E192E00E94E70021E04E
:1001F000892B09F420E0822F0895FC01848DDF0112
:10020000A80FB11DA35ABF4F2C91848D90E0019689
:100210008F739927848FA689B7892C93A089B18978
:100220008C91837080648C93938D848D981306C019
:100230000288F389E02D80818F7D80830895EF927D
:10024000FF920F931F93CF93DF93EC0181E0888F90
:100250009B8D8C8D981305C0E889F989808185FD77
:1002600026C0F62E0B8D10E00F5F1F4F0F73112766
:10027000E02E8C8DE8120CC00FB607FCFACFE8898F
:10028000F989808185FFF5CFCE010E94FD00F1CF75
:100290008B8DFE01E80FF11DE35AFF4FF0829FB7EF
:1002A000F8940B8FEA89FB89808180620AC09FB72E
:1002B000F894EE89FF896083E889F98980818370E9
:1002C000806480839FBF81E090E0DF91CF911F9198
:1002D0000F91FF90EF900895CF93DF93EC01888DFD
:1002E0008823C9F0EA89FB89808185FD05C0A8893A
:1002F000B9898C9186FD0FC00FB607FCF5CF8081C0
:1003000085FFF2CFA889B9898C9185FFEDCFCE0109
:100310000E94FD00E7CFDF91CF91089580E090E04B
:10032000892B29F00E94F30081110C94000008959C
:10033000089580E090E00895CF93DF93EC0160E0B2
:100340008E810E94160561E08E810E94160560E094
:100350008E810E9416058BE891E00197F1F7DF91FD
:10036000CF910895CF93DF93809108019091090177
:100370008430910529F4C0910002D091010206C099
:100380000597C9F5C0910602D0910702CA30D10580
:1003900054F461E08BE00E94DE03CE010E94F00382
:1003A00061E08CE020C0CE010A978A35910590F07B
:1003B000C436D10501F561E08BE00E94DE0384E6DE
:1003C00090E00E94F00361E08EE00E94DE0384E38F
:1003D00091E00DC061E08BE00E94DE03CE010E943F
:1003E000F00361E08DE00E94DE0380E391E0DF91A5
:1003F000CF910C94DC03DF91CF9108958AEC92E0C9
:100400000C94D20388ED92E00C94D20386EE92E035
:100410000C94D203862F642F0C9445050C94CA03C8
:100420000E94471184EF92E00E94A20686EE92E0BD
:100430000E94A20688ED92E00E94A2068AEC92E059
:100440000C94A206CF93DF93FC01218530E0F901E3
:10045000E255FF4F8491F901E656FF4FD491F9011F
:10046000EA57FF4FC491CC2379F081110E94ED042B
:10047000EC2FF0E0EE0FFF1FE859FF4FA591B4916C
:10048000EC91ED2381E009F480E08170DF91CF9160
:1004900008951F920F920FB60F9211242F933F933E
:1004A0008F939F93AF93BF9380911102909112020B
:1004B000A0911302B09114023091100223E0230F97
:1004C0002D3720F40196A11DB11D05C026E8230F8C
:1004D0000296A11DB11D20931002809311029093EA
:1004E0001202A0931302B093140280910C02909117
:1004F0000D02A0910E02B0910F020196A11DB11D37
:1005000080930C0290930D02A0930E02B0930F0201
:10051000BF91AF919F918F913F912F910F900FBEFF
:100520000F901F9018951F920F920FB60F921124E3
:100530002F933F934F935F936F937F938F939F93EB
:10054000AF93BF93EF93FF9385E192E00E94FD008C
:10055000FF91EF91BF91AF919F918F917F916F919B
:100560005F914F913F912F910F900FBE0F901F9071
:1005700018951F920F920FB60F9211242F938F93FD
:100580009F93EF93FF93E0912502F09126028081E3
:10059000E0912B02F0912C0282FD12C0908180919B
:1005A0002E028F5F8F7320912F02821751F0E091FE
:1005B0002E02F0E0EB5EFD4F958F80932E0201C07E
:1005C0008081FF91EF919F918F912F910F900FBE9E
:1005D0000F901F901895CF92DF92EF92FF920F939A
:1005E0001F93CF93DF936C017C0187E0E80EF11C31
:1005F000C0E0D0E0062F10E0B8010C2E02C07595C7
:1006000067950A94E2F76170F70181917F010E947A
:1006100016052196C430D10579F7C601DF91CF9137
:100620001F910F91FF90EF90DF90CF900C949C0161
:10063000CF92DF92EF92FF920F931F93CF93DF93AE
:10064000EC01F62E642F8C810E9416058D818F3F60
:1006500019F060E00E9416058F850F2D10E084FFD1
:1006600025C06E0187E0C80ED11CE12CF12CB80129
:100670000E2C02C0759567950A94E2F76170F60139
:1006800081916F010E941605FFEFEF1AFF0A88E0C3
:10069000E816F10461F7CE01DF91CF911F910F9120
:1006A000FF90EF90DF90CF900C949C01B80184E014
:1006B000759567958A95E1F7CE010E94EB026F2D43
:1006C000CE01DF91CF911F910F91FF90EF90DF90BE
:1006D000CF900C94EB0241E00E94180381E090E07F
:1006E000089540E0682F82EB92E00C941803009785
:1006F00069F0FC0101900020E9F73197AF01481B38
:10070000590BBC0182EB92E00C948C0080E090E0ED
:1007100008958F929F92AF92BF920F931F93CF93A2
:10072000DF93CDB7DEB7A1970FB6F894DEBF0FBE4B
:10073000CDBF19A2423008F44AE08E010F5D1F4F71
:10074000842E912CA12CB12CA50194010E94A50E00
:10075000E62FB901CA0101501109EA3014F4E05D35
:1007600001C0E95CD801EC93232B242B252B61F7E6
:10077000C8010E947703A1960FB6F894DEBF0FBEA2
:10078000CDBFDF91CF911F910F91BF90AF909F9000
:100790008F90089581E00E9471038BE39FE10197A0
:1007A000F1F70895FC01808580FD04C082FB882755
:1007B00080F9089580E008950C947703643008F080
:1007C00063E09091C502691710F06FEF690FE62F93
:1007D000F0E0EE54FD4F9489890F80680C9471030A
:1007E000CF92DF92EF92FF926C01990FEE08FF0813
:1007F000F7FE16C041E06DE282EB92E00E94180322
:1008000066277727CB016C197D098E099F094AE07D
:100810000E9489030196FF90EF90DF90CF9008959A
:100820004AE0C701B601FF90EF90DF90CF900C94A3
:1008300089038F929F92AF92BF92CF92DF92EF92F5
:10084000FF920F931F93CF93DF936B017C01142FC3
:100850009B01AC010E941411882319F089ED91E0ED
:1008600027C046015701E894B7F82FEF3FEF4FE755
:100870005FE7C501B4010E94141181110DC02FEF73
:100880003FEF4FE75FE7C501B4010E94430F181621
:100890001CF48DED91E00CC02FEF3FEF4FE75FE4CC
:1008A000C701B6010E94A210181684F481EE91E0EF
:1008B000DF91CF911F910F91FF90EF90DF90CF903C
:1008C000BF90AF909F908F900C9477032FEF3FEFE6
:1008D0004FE75FECC701B6010E94430F87FDE6CFEB
:1008E00020E030E0A901C701B6010E94430F87FF55
:1008F0000DC041E06DE282EB92E00E941803F7FA2E
:10090000F094F7F8F094C1E0D0E002C0C0E0D0E08D
:1009100000E060E070E080E09FE3101741F020E02D
:1009200030E040E251E40E94480F0F5FF6CFA7018C
:1009300096010E94D70E6B017C010E94C10F4B01F2
:100940005C014AE00E948903C80FD91F1123B9F145
:10095000C501B4010E94F00F9B01AC01C701B601B3
:100960000E94D60E6B017C0141E06EE282EB92E0C8
:100970000E941803219620E030E040E251E4C701D4
:10098000B6010E94A7104B015C010E94C10F6B01D0
:10099000E12CF12C4AE0C701B6010E948903C80F7F
:1009A000D91FC701B6010E94F00F9B01AC01C50120
:1009B000B4010E94D60E6B017C011150E1F6CE010C
:1009C000DF91CF911F910F91FF90EF90DF90CF902B
:1009D000BF90AF909F908F900895833081F028F45E
:1009E000813099F08230A1F008958730A9F08830E5
:1009F000B9F08430D1F4809180008F7D03C0809164
:100A000080008F7780938000089584B58F7702C02F
:100A100084B58F7D84BD08958091B0008F7703C029
:100A20008091B0008F7D8093B00008951F93CF9385
:100A3000DF93282F30E0F901E255FF4F8491F9014F
:100A4000E656FF4FD491F901EA57FF4FC491CC23EA
:100A5000C1F0162F81110E94ED04EC2FF0E0EE0F93
:100A6000FF1FE458FF4FA591B4919FB7F89411115F
:100A700004C08C91D095D82302C0EC91DE2BDC937E
:100A80009FBFDF91CF911F910895CF93DF9390E0A7
:100A9000FC01E656FF4F2491FC01EA57FF4F849179
:100AA000882361F190E0880F991FFC01EE58FF4FF9
:100AB000C591D491FC01E458FF4FA591B491611107
:100AC00009C09FB7F8948881209582238883EC9190
:100AD0002E230BC0623061F49FB7F8948881322FC7
:100AE000309583238883EC912E2B2C939FBF06C0D7
:100AF0008FB7F894E8812E2B28838FBFDF91CF9199
:100B00000895CF93DF93823028F09091C1029860CE
:100B10009093C1028093C5021092C60280E4809334
:100B2000C70280E18093C80280E58093C90261E03A
:100B30008091B6020E9445058091B7028F3F19F05F
:100B400061E00E94450561E08091B8020E94450580
:100B5000C2EBD2E09E01225B32408091C10284FD53
:100B600003C084E090E002C088E090E0219628175E
:100B700039072CF461E08E810E944505EBCF8BE3B1
:100B80009DE00197F1F760E08091B6020E941605A2
:100B900060E08091B8020E9416058091B7028F3FF5
:100BA00019F060E00E9416058091C10284FD20C00A
:100BB00063E082EB92E00E94EB02CBE4D6E4CE014C
:100BC0000197F1F763E082EB92E00E94EB0221973C
:100BD000F1F763E082EB92E00E94EB0283E592E0A2
:100BE0000197F1F762E082EB92E00E94EB0215C000
:100BF00080620E9471038BE496E40197F1F7809183
:100C0000C10280620E94710383E592E00197F1F7CF
:100C10008091C10280620E9471038091C102806252
:100C20000E94710384E08093C2028CE00E947103F1
:100C30000E94CA0382E08093C30286E0DF91CF91D5
:100C40000C9471031F93CF93DF93182FEB0161E096
:100C50000E944505209711F460E004C0CF3FD10504
:100C600039F461E0812FDF91CF911F910C9416052B
:100C7000E12FF0E0E255FF4FE491E330F9F048F462
:100C8000E130B9F0E230A1F584B5806284BDC8BD21
:100C900034C0E730E9F0E83019F1E43049F58091EB
:100CA0008000806280938000D0938B00C0938A0084
:100CB00024C084B5806884BDC7BD1FC080918000FA
:100CC000806880938000D0938900C093880015C00D
:100CD0008091B00080688093B000C093B3000DC0D5
:100CE0008091B00080628093B000C093B40005C0D2
:100CF000C038D1050CF0B5CFAFCFDF91CF911F91A8
:100D000008952FB7F89460911102709112028091AA
:100D10001302909114022FBF0895CF93DF93EC013B
:100D2000698718860E942202882319F088858360CB
:100D300088870E9481066A837B838C839D83DF91F1
:100D4000CF910895CF92DF92EF92FF921F93CF93AE
:100D5000DF93EC0188858B7F8887CE010E94220279
:100D6000182F888586958170181759F00E94810682
:100D70006A837B838C839D83988582E0892788871B
:100D80002AC00E948106CA80DB80EC80FD80AB0116
:100D9000BC014C195D096E097F098E819F81A0E01D
:100DA000B0E0481759076A077B07A8F0888581706B
:100DB000181789F00E9481066A837B838C839D8348
:100DC000988581E08927846088870E9481066A87E8
:100DD0007B878C879D87888582FB882780F9DF91B8
:100DE000CF911F91FF90EF90DF90CF900895CF9318
:100DF000DF93CDB7DEB7C954D1090FB6F894DEBF83
:100E00000FBECDBF789484B5826084BD84B5816007
:100E100084BD85B5826085BD85B5816085BD8091C5
:100E20006E00816080936E0010928100809181003D
:100E30008260809381008091810081608093810035
:100E4000809180008160809380008091B1008460F7
:100E50008093B1008091B00081608093B000809158
:100E60007A00846080937A0080917A008260809317
:100E70007A0080917A00816080937A0080917A0074
:100E8000806880937A001092C100E0912502F09171
:100E9000260282E08083E0912102F09122021082FA
:100EA000E0912302F09124028FEC808310922D02B6
:100EB000E0912902F0912A0286E08083E0912702E6
:100EC000F0912802808180618083E0912702F09177
:100ED0002802808188608083E0912702F0912802B7
:100EE000808180688083E0912702F09128028081D0
:100EF0008F7D808382E00E9481050E94CA0360E0AA
:100F000088E00E94450560E089E00E94450560E0B8
:100F10008AE00E94450560E08DE00E94450568E09A
:100F200070E084EF92E00E948D0605E010E01093DF
:100F3000FB020093FA0269E070E086EE92E00E9404
:100F40008D061093ED020093EC026AE070E088EDEC
:100F500092E00E948D061093DF020093DE026DE0A6
:100F600070E08AEC92E00E948D061093D10200930B
:100F7000D00261E085E00E94450561E086E00E94C4
:100F8000450561E08FE00E94450560E070E085E086
:100F90000E94220660E070E086E00E94220660E087
:100FA0008FE00E94160561E080E10E9445052091D6
:100FB000390129AF80913A018AAF90913B019BAFF3
:100FC00060903C0110913D0100913E0170903F0105
:100FD0002CAF8DAF9EAF6FAE21961FAF219722969B
:100FE0000FAF229723967FAE239724962FAF249797
:100FF00025968FAF259726969FAF269727966FAE9B
:10100000279728961FAF289729960FAF29972A96DA
:101010007FAE2A970E948106C090E801D090E90136
:10102000E090EA01F090EB01DC01CB018C199D0905
:10103000AE09BF09853F9140A105B10500F10E94AD
:1010400081066093E8017093E9018093EA0190932F
:10105000EB018091E6019091E701892B39F481E061
:1010600090E09093E7018093E60104C01092E701BD
:101070001092E6016091E60180E10E9416050E944F
:1010800012028091020290910302009759F480911C
:10109000080290910902892B39F41092F301109201
:1010A000F2010EC0019731F080910802909109027F
:1010B000019731F481E090E09093F3018093F20185
:1010C00084EF92E00E94D203882381F00E940E02F6
:1010D000809108019091090101968730910511F4E2
:1010E00081E090E0909309018093080180910801CC
:1010F000909109018330910509F463C23CF4813079
:10110000910571F0029709F4DFC1B7C485309105EC
:1011100009F4E9C30CF46AC3069709F458C4ADC4D2
:101120008AE0E0E4F1E0DE01519601900D928A95AB
:10113000E1F78AE0EAE4F1E0DE01119601900D9218
:101140008A95E1F787E0E4E5F1E0DE015D96019044
:101150000D928A95E1F785E0EBE5F1E0DE019D96E1
:1011600001900D928A95E1F785E0E0E6F1E0DE017D
:10117000989601900D928A95E1F724968FAD249769
:101180008EAB25969FAD25979FAB26962FAD2697C4
:1011900028AF27968FAD27978AAB28969FAD2897C3
:1011A0009BAB29962FAD29972CAB2A968FAD2A970A
:1011B0008DAB80E480937C0080917A008064809382
:1011C0007A0080917A0086FDFCCF60917800809152
:1011D000790070E0782B072E000C880B990B0E9489
:1011E000F20F20E030E040EA50E40E94A71020E037
:1011F00030EC4FE754E40E94480F2AE037ED43E219
:101200005CE30E94480F6B017C016093F4017093D2
:10121000F5018093F6019093F70180900001909082
:101220000101A0900201B0900301A50194010E9468
:10123000430F87FF5DC080910A0290910B028130BD
:10124000910509F0CFC09093F1018093F001809156
:10125000F2019091F301009769F560910601709198
:101260000701072E000C880B990B0E94F20F1B013F
:101270002C01A7019601C501B4010E94D60E9B0165
:10128000AC01C201B1010E94A7100E94BA0F9B01DC
:10129000AC01A6E4B0E00E949A0E24E630E040E003
:1012A00050E00E947B0ECA01B9010E94F20F0E9419
:1012B000BA0F18C0019709F095C080910202909171
:1012C0000302019709F08EC02091000230910102C3
:1012D0004FEF429FC001439F900D112464E670E0E0
:1012E0000E94191185E00E94220660E070E077C03C
:1012F000A5019401C701B6010E94A21018160CF0B6
:1013000071C080910A0290910B02019709F06AC0A6
:101310001092F1011092F0016091040170910501A9
:10132000072E000C880B990B0E94F20F1B012C0159
:10133000A5019401C701B6010E94D70E9B01AC0123
:10134000C201B1010E94A7100E94BA0F9B01AC011B
:10135000A7ECB0E00E949A0E24E630E040E050E0B6
:101360000E947B0ECA01B901685C7F4F8F4F9F4F6F
:101370000E94F20F6B017C016093EC017093ED0110
:101380008093EE019093EF018091F2019091F3012F
:10139000009751F460E070E085E00E942206C701EA
:1013A000B6010E94BA0F1BC00197E1F480910802B8
:1013B000909109020197B1F460E070E085E00E942D
:1013C000220620910602309107024FEF429FC00192
:1013D000439F900D112464E670E00E94191186E08D
:1013E0000E94220660E080E00E94DE03CE0141966A
:1013F0000E94DC0360E084E00E94DE036091000153
:1014000070910101809102019091030141E00E94DD
:10141000190461E080E00E94DE03CE0101960E9483
:10142000DC0361E084E00E94DE036091F4017091CE
:10143000F5018091F6019091F70141E00E941904B5
:1014400080910A0290910B02019701F58091F201BF
:101450009091F301892BA9F48091F0019091F10111
:1014600060E0019731F48CE00E94DE03CE018D969E
:1014700005C08CE00E94DE03CE0188960E94DC034A
:1014800005C08091020290910302EACF80910A0286
:1014900090910B02892B79F460E08AE00E94DE03D0
:1014A000CE014D960E94DC0361E08CE00E94DE03D9
:1014B000CE01C29606C061E08CE00E94DE03CE0140
:1014C000C6960E94DC03D9C28EE0E5E6F1E0DE01BB
:1014D000119601900D928A95E1F785E0E3E7F1E03E
:1014E000DE01519601900D928A95E1F760E080E06F
:1014F0000E94DE03CE0101960E94DC0361E080E0E1
:101500000E94DE03CE0141960E94DC0361E084E08C
:101510000E94DE036091000170910101809102013F
:101520009091030141E00E9419040E940602882361
:10153000C1F00E940E0220E030E040E85FE36091DD
:1015400000017091010180910201909103010E94BC
:10155000D70E609300017093010180930201909374
:1015600003010E940202882309F487C20E940E022E
:1015700020E030E040E85FE36091000170910101FC
:1015800080910201909103010E94D60E6B017C01B3
:1015900020E030E0A9010E94430F87FD09C0C092FE
:1015A0000001D0920101E0920201F092030165C2B4
:1015B0001092000110920101109202011092030199
:1015C0005CC28EE0E8E7F1E0DE01119601900D9239
:1015D0008A95E1F789E0E6E8F1E0DE0151960190B5
:1015E0000D928A95E1F788E0EFE8F1E0DE015D9683
:1015F00001900D928A95E1F78AE290E099A788A779
:101600008091FC019091FD0160E0892B09F078C088
:1016100080E00E94DE03CE0101960E94DC0361E0BF
:1016200081E00E94DE03CE0141960E94DC0361E06E
:101630008AE00E94DE0380910601909107010E94DA
:10164000F0038091FA019091FB01892BD1F40E9463
:10165000FE01882341F00E940E0281E090E0909309
:10166000FB018093FA010E940202882309F405C25B
:101670000E940E0281E090E09093FD018093FC01B6
:10168000FCC161E080E00E94DE03CE0188960E94EA
:10169000DC030E94FE01882331F00E940E021092AA
:1016A000FB011092FA010E9402028823C1F00E94FD
:1016B0000E0280910601909107011816190634F068
:1016C00081E090E0909307018093060180910601EC
:1016D00090910701019790930701809306010E9462
:1016E0000602882309F4C9C10E940E0280910601F6
:1016F0009091070101969093070180930601BDC167
:1017000080E00E94DE03CE0101960E94DC0361E0CE
:1017100081E00E94DE03CE014D960E94DC0361E071
:1017200089E00E94DE0380910401909105010E94EE
:10173000F0038091F8019091F901892BC1F40E9486
:10174000FE01882341F00E940E0281E090E0909318
:10175000F9018093F8010E940602882309F48DC1E3
:101760000E940E021092FD011092FC0186C161E000
:1017700080E00E94DE03CE0188960E94DC030E9476
:10178000FE01882331F00E940E021092F90110929E
:10179000F8010E9402028823C1F00E940E0280918B
:1017A0000401909105011816190634F081E090E0CB
:1017B00090930501809304018091040190910501AB
:1017C000019790930501809304010E9406028823EB
:1017D00009F453C10E940E02809104019091050109
:1017E0000196909305018093040147C18EE0E7E9DB
:1017F000F1E0DE01119601900D928A95E1F787E004
:10180000E5EAF1E0DE01519601900D928A95E1F74B
:101810009CAD98A72DAD29A78EAD8AA79FAD9D8FB2
:1018200021962FAD21972E8F22968FAD22978F8FE5
:1018300023969FAD239798A360E080E00E94DE038B
:10184000CE0101960E94DC0361E080E00E94DE038D
:10185000CE0141960E94DC0361E085E00E94DE0338
:10186000E0900202F0900302CE0121E0E216F104C2
:10187000D9F488960E94DC0361E08BE00E94DE03CD
:1018800080910002909101020E94F0030E94B20137
:101890000E94FE01882359F08091FE019091FF0182
:1018A000892B09F4EDC003C04D960E94DC030E9411
:1018B0000602882361F00E940E0281E090E090937E
:1018C00003028093020210920902109208020E9401
:1018D0000202882309F4D1C00E940E021092030272
:1018E00010920202CAC08EE0E7E9F1E0DE01119633
:1018F00001900D928A95E1F786E0ECEAF1E0DE01D5
:10190000519601900D928A95E1F799AD98A72AAD6D
:1019100029A78BAD8AA76D8E1E8F0F8F78A260E0EE
:1019200080E00E94DE03CE0101960E94DC0361E0AC
:1019300080E00E94DE03CE0141960E94DC0361E05C
:1019400084E00E94DE03E0900802F090090291E03A
:10195000E916F104E1F4CE0188960E94DC0361E00F
:101960008BE00E94DE0380910602909107020E94A4
:10197000F0030E94B2010E94FE01882361F0809171
:10198000040290910502892B09F4D8C004C0CE014D
:101990004D960E94DC030E940602882361F00E949B
:1019A0000E0281E090E09093090280930802109269
:1019B0000302109202020E940202882309F45DC011
:1019C0000E940E02109209021092080256C080E195
:1019D000E2EBF1E0DE01119601900D928A95E1F7BC
:1019E0008BE0E2ECF1E0DE015D9601900D928A95CC
:1019F000E1F78CE0EDECF1E0DE01519601900D9203
:101A00008A95E1F760E080E00E94DE03CE01019656
:101A10000E94DC0380910A0290910B02019759F415
:101A200061E08FE00E94160561E080E00E94DE0325
:101A3000CE014D960AC060E08FE00E94160561E07D
:101A400080E00E94DE03CE0141960E94DC030E94EA
:101A50000602882341F00E940E0281E090E09093FC
:101A60000B0280930A020E940202882331F00E9436
:101A70000E0210920B0210920A020E948E01CACA34
:101A8000F092FF01E092FE018091FE019091FF0132
:101A9000019709F00CCF0E94120261E089E00E94D8
:101AA000DE0386E391E00E94DC030E9406028823A5
:101AB000B1F08091FE019091FF01019781F4809136
:101AC00000029091010205968536910514F084E696
:101AD00090E090930102809300020E94B2010E9464
:101AE0000202882399F08091FE019091FF010197F5
:101AF00069F48091000290910102059797FF19C047
:101B000010920102109200020E94B2010E94FE0196
:101B1000882309F4B9CF8091FE019091FF010197CC
:101B200009F0B2CF0E940E021092FF011092FE0146
:101B3000ABCF9093010280930002E6CFF0920502B2
:101B4000E09204028091040290910502019709F04D
:101B500022CF0E94120261E089E00E94DE0386E348
:101B600091E00E94DC030E9406028823B1F080917C
:101B7000040290910502019781F4809106029091F0
:101B8000070205968536910514F084E690E090935F
:101B90000702809306020E94B2010E94020288237B
:101BA00099F08091040290910502019769F4809167
:101BB000060290910702059797FF19C0109207023D
:101BC000109206020E94B2010E94FE01882309F4CD
:101BD000B9CF8091040290910502019709F0B2CF2C
:101BE0000E940E021092050210920402ABCF909355
:101BF000070280930602E6CFE5E1F2E0138212824B
:101C000088EE93E0A0E0B0E084839583A683B78359
:101C10008EE091E09183808385EC90E095878487C6
:101C200084EC90E09787868780EC90E0918B808BA6
:101C300081EC90E0938B828B82EC90E0958B848B8F
:101C400086EC90E0978B868B118E128E138E148EFD
:101C5000E2EBF2E01382128280E291E091838083D2
:101C60008CE084838FEF85838BE0868387E0878396
:101C700084E0808783E0818782E0828713861486F0
:101C800015861686178681E00E948105E4EFF2E052
:101C90002CE231E031832083128213821482158278
:101CA0008AE090E09783868310861186E6EEF2E064
:101CB0003183208312821382148215829783868354
:101CC00010861186E8EDF2E03183208312821382C0
:101CD000148215829783868310861186EAECF2E0DF
:101CE0003183208312821382148215829783868324
:101CF000108611860895052E97FB1EF400940E940D
:101D0000920E57FD07D00E94A50E07FC03D04EF49B
:101D10000C94920E50954095309521953F4F4F4F22
:101D20005F4F089590958095709561957F4F8F4F87
:101D30009F4F08950E94C70EA59F900DB49F900DD0
:101D4000A49F800D911D11240895A1E21A2EAA1BB3
:101D5000BB1BFD010DC0AA1FBB1FEE1FFF1FA2175B
:101D6000B307E407F50720F0A21BB30BE40BF50B58
:101D7000661F771F881F991F1A9469F760957095E1
:101D8000809590959B01AC01BD01CF010895A29F64
:101D9000B001B39FC001A39F700D811D1124911D3F
:101DA000B29F700D811D1124911D08955058BB27BD
:101DB000AA270E94EE0E0C9468100E945A1038F068
:101DC0000E94611020F039F49F3F19F426F40C941E
:101DD00057100EF4E095E7FB0C945110E92F0E9488
:101DE000791058F3BA17620773078407950720F034
:101DF00079F4A6F50C949B100EF4E0950B2EBA2FF7
:101E0000A02D0B01B90190010C01CA01A001112400
:101E1000FF27591B99F0593F50F4503E68F11A16AC
:101E2000F040A22F232F342F4427585FF3CF46953D
:101E300037952795A795F0405395C9F77EF41F165F
:101E4000BA0B620B730B840BBAF09150A1F0FF0F29
:101E5000BB1F661F771F881FC2F70EC0BA0F621F15
:101E6000731F841F48F4879577956795B795F79505
:101E70009E3F08F0B0CF9395880F08F09927EE0F9A
:101E80009795879508950E942D1008F481E0089594
:101E90000E945C0F0C9468100E94611058F00E9420
:101EA0005A1040F029F45F3F29F00C945110511161
:101EB0000C949C100C9457100E94791068F399238D
:101EC000B1F3552391F3951B550BBB27AA27621736
:101ED0007307840738F09F5F5F4F220F331F441F43
:101EE000AA1FA9F335D00E2E3AF0E0E832D0915077
:101EF0005040E695001CCAF72BD0FE2F29D0660F64
:101F0000771F881FBB1F261737074807AB07B0E8A6
:101F100009F0BB0B802DBF01FF2793585F4F3AF0AC
:101F20009E3F510578F00C9451100C949C105F3F2B
:101F3000E4F3983ED4F3869577956795B795F79532
:101F40009F5FC9F7880F911D9695879597F908951A
:101F5000E1E0660F771F881FBB1F621773078407B6
:101F6000BA0720F0621B730B840BBA0BEE1F88F7C5
:101F7000E09508950E94C10F6894B1110C949C10D3
:101F800008950E94811088F09F5798F0B92F9927E3
:101F9000B751B0F0E1F0660F771F881F991F1AF054
:101FA000BA95C9F714C0B13091F00E949B10B1E00E
:101FB00008950C949B10672F782F8827B85F39F00D
:101FC000B93FCCF3869577956795B395D9F73EF4ED
:101FD00090958095709561957F4F8F4F9F4F089595
:101FE000E89409C097FB3EF49095809570956195B3
:101FF0007F4F8F4F9F4F9923A9F0F92F96E9BB2769
:102000009395F695879577956795B795F111F8CFE4
:10201000FAF4BB0F11F460FF1BC06F5F7F4F8F4F4F
:102020009F4F16C0882311F096E911C0772321F045
:102030009EE8872F762F05C0662371F096E8862FDD
:1020400070E060E02AF09A95660F771F881FDAF734
:10205000880F9695879597F90895990F0008550F61
:10206000AA0BE0E8FEEF16161706E807F907C0F01E
:1020700012161306E407F50798F0621B730B840B26
:10208000950B39F40A2661F0232B242B252B21F400
:1020900008950A2609F4A140A6958FEF811D811DA0
:1020A000089597F99F6780E870E060E008959FEFDA
:1020B00080EC089500240A941616170618060906DF
:1020C000089500240A9412161306140605060895AE
:1020D000092E0394000C11F4882352F0BB0F40F436
:1020E000BF2B11F460FF04C06F5F7F4F8F4F9F4F76
:1020F000089557FD9058440F551F59F05F3F71F0F8
:102100004795880F97FB991F61F09F3F79F087955E
:102110000895121613061406551FF2CF4695F1DFE7
:1021200008C0161617061806991FF1CF8695710577
:10213000610508940895E894BB2766277727CB01AB
:1021400097F908950E942D1008F48FEF08950E94CA
:10215000BA100C9468100E945A1038F00E94611056
:1021600020F0952311F00C9451100C945710112469
:102170000C949C100E94791070F3959FC1F3950FF9
:1021800050E0551F629FF001729FBB27F00DB11DFB
:10219000639FAA27F00DB11DAA1F649F6627B00D8B
:1021A000A11D661F829F2227B00DA11D621F739F74
:1021B000B00DA11D621F839FA00D611D221F749F82
:1021C0003327A00D611D231F849F600D211D822FC9
:1021D000762F6A2F11249F5750409AF0F1F08823F0
:1021E0004AF0EE0FFF1FBB1F661F771F881F91501D
:1021F0005040A9F79E3F510580F00C9451100C946B
:102200009C105F3FE4F3983ED4F3869577956795ED
:10221000B795F795E7959F5FC1F7FE2B880F911D46
:102220009695879597F908950E942D10880B990B24
:10223000089597FB072E16F4009407D077FD09D078
:102240000E942D1107FC05D03EF4909581959F4F7B
:102250000895709561957F4F0895AA1BBB1B51E1AE
:1022600007C0AA1FBB1FA617B70710F0A61BB70B06
:10227000881F991F5A95A9F780959095BC01CD01AB
:102280000895EE0FFF1F0590F491E02D099481E071
:0C22900090E0F8940C944C11F894FFCFEF
:10229C000000E0410A000A000100000000001F01DC
:1022AC008C00B6006C01E700C500D90000000000EE
:1022BC006B038C00990198010000000022020A02B5
:1022CC002520200025002D3E004F4E004F46460095
:1022DC0053503A2020202020430050563A202020F2
:1022EC002020430044726976657200486561740071
:1022FC0046616E20004E65772053657420506F69DF
:10230C006E740053503A20004E65772050726F70F7
:10231C00204761696E004B7020486561743A004B30
:10232C00702046616E3A0020204D616E75616C2004
:10233C004D6F646500486561743A200046616E3AE1
:10234C002000202044726976657220537461747584
:10235C00730020202020456E61626C6500202020D7
:10236C002044697361626C65006E616E00696E6613
:06237C00006F7666000010
:00000001FF
