:100000000C9462000C948A000C948A000C948A0070
:100010000C948A000C948A000C948A000C948A0038
:100020000C948A000C948A000C948A000C948A0028
:100030000C948A000C948A000C948A000C948A0018
:100040000C9449020C948A000C94B9020C9493020B
:100050000C948A000C948A000C948A000C948A00F8
:100060000C948A000C948A000000000023002600F3
:10007000290000000000240027002A0000000000E2
:10008000250028002B0004040404040404040202D4
:100090000202020203030303030301020408102007
:1000A0004080010204081020010204081020000012
:1000B0000008000201000003040700000000000027
:1000C0000000130D11241FBECFEFD8E0DEBFCDBF5F
:1000D00011E0A0E0B1E0EAECF0E202C005900D9280
:1000E000A03DB107D9F722E0A0EDB1E001C01D921B
:1000F000A63EB207E1F710E0C2E6D0E004C02197C7
:10010000FE010E945810C136D107C9F70E94F706B8
:100110000C9463100C940000CF92DF92EF92FF9248
:100120000F931F93CF93DF936C017A018B01C0E093
:10013000D0E0CE15DF0581F0D8016D918D01D6019B
:10014000ED91FC910190F081E02DC6010995892B7C
:1001500011F02196EECF7E01C701DF91CF911F9163
:100160000F91FF90EF90DF90CF900895FC01538D99
:10017000448D252F30E0842F90E0821B930B541781
:1001800010F0CF96089501970895FC01918D828D0E
:10019000981761F0828DDF01A80FB11D5D968C91DB
:1001A000928D9F5F9F73928F90E008958FEF9FEFE6
:1001B0000895FC01918D828D981731F0828DE80FA2
:1001C000F11D858D90E008958FEF9FEF0895FC015C
:1001D000918D228D892F90E0805C9F4F821B910929
:1001E0008F739927089589EF91E00E94E70021E03D
:1001F000892B09F420E0822F0895FC01848DDF0112
:10020000A80FB11DA35ABF4F2C91848D90E0019689
:100210008F739927848FA689B7892C93A089B18978
:100220008C91837080648C93938D848D981306C019
:100230000288F389E02D80818F7D80830895EF927D
:10024000FF920F931F93CF93DF93EC0181E0888F90
:100250009B8D8C8D981305C0E889F989808185FD77
:1002600026C0F62E0B8D10E00F5F1F4F0F73112766
:10027000E02E8C8DE8120CC00FB607FCFACFE8898F
:10028000F989808185FFF5CFCE010E94FD00F1CF75
:100290008B8DFE01E80FF11DE35AFF4FF0829FB7EF
:1002A000F8940B8FEA89FB89808180620AC09FB72E
:1002B000F894EE89FF896083E889F98980818370E9
:1002C000806480839FBF81E090E0DF91CF911F9198
:1002D0000F91FF90EF900895CF93DF93EC01888DFD
:1002E0008823C9F0EA89FB89808185FD05C0A8893A
:1002F000B9898C9186FD0FC00FB607FCF5CF8081C0
:1003000085FFF2CFA889B9898C9185FFEDCFCE0109
:100310000E94FD00E7CFDF91CF91089580E090E04B
:10032000892B29F00E94F30081110C94000008959C
:10033000089580E090E00895CF93DF93EC0160E0B2
:100340008E810E94160561E08E810E94160560E094
:100350008E810E9416058BE891E00197F1F7DF91FD
:10036000CF910895CF93DF9380910601909107017B
:100370008430910529F4C091E401D091E50106C0D3
:100380000597C9F5C091EA01D091EB01CA30D105BA
:1003900054F461E08BE00E94DE03CE010E94F00382
:1003A00061E08CE020C0CE010A978A35910590F07B
:1003B000C436D10501F561E08BE00E94DE0384E6DE
:1003C00090E00E94F00361E08EE00E94DE0382E391
:1003D00091E00DC061E08BE00E94DE03CE010E943F
:1003E000F00361E08DE00E94DE038EE291E0DF9198
:1003F000CF910C94DC03DF91CF9108958EEA92E0C7
:100400000C94D2038CEB92E00C94D2038AEC92E031
:100410000C94D203862F642F0C9445050C94CA03C8
:100420000E945E1088ED92E00E94A2068AEC92E0A3
:100430000E94A2068CEB92E00E94A2068EEA92E055
:100440000C94A206CF93DF93FC01218530E0F901E3
:10045000E255FF4F8491F901E656FF4FD491F9011F
:10046000EA57FF4FC491CC2379F081110E94ED042B
:10047000EC2FF0E0EE0FFF1FE859FF4FA591B4916C
:10048000EC91ED2381E009F480E08170DF91CF9160
:1004900008951F920F920FB60F9211242F933F933E
:1004A0008F939F93AF93BF938091F5019091F60145
:1004B000A091F701B091F8013091F40123E0230FEE
:1004C0002D3720F40196A11DB11D05C026E8230F8C
:1004D0000296A11DB11D2093F4018093F501909324
:1004E000F601A093F701B093F8018091F00190918B
:1004F000F101A091F201B091F3010196A11DB11D8E
:100500008093F0019093F101A093F201B093F30175
:10051000BF91AF919F918F913F912F910F900FBEFF
:100520000F901F9018951F920F920FB60F921124E3
:100530002F933F934F935F936F937F938F939F93EB
:10054000AF93BF93EF93FF9389EF91E00E94FD007B
:10055000FF91EF91BF91AF919F918F917F916F919B
:100560005F914F913F912F910F900FBE0F901F9071
:1005700018951F920F920FB60F9211242F938F93FD
:100580009F93EF93FF93E0910902F0910A0280811B
:10059000E0910F02F091100282FD12C090818091D3
:1005A00012028F5F8F7320911302821751F0E09136
:1005B0001202F0E0E750FE4F958F8093120201C0C7
:1005C0008081FF91EF919F918F912F910F900FBE9E
:1005D0000F901F901895CF92DF92EF92FF920F939A
:1005E0001F93CF93DF936C017C0187E0E80EF11C31
:1005F000C0E0D0E0062F10E0B8010C2E02C07595C7
:1006000067950A94E2F76170F70181917F010E947A
:1006100016052196C430D10579F7C601DF91CF9137
:100620001F910F91FF90EF90DF90CF900C949C0161
:10063000CF92DF92EF92FF920F931F93CF93DF93AE
:10064000EC01F62E642F8C810E9416058D818F3F60
:1006500019F060E00E9416058F850F2D10E084FFD1
:1006600025C06E0187E0C80ED11CE12CF12CB80129
:100670000E2C02C0759567950A94E2F76170F60139
:1006800081916F010E941605FFEFEF1AFF0A88E0C3
:10069000E816F10461F7CE01DF91CF911F910F9120
:1006A000FF90EF90DF90CF900C949C01B80184E014
:1006B000759567958A95E1F7CE010E94EB026F2D43
:1006C000CE01DF91CF911F910F91FF90EF90DF90BE
:1006D000CF900C94EB0241E00E94180381E090E07F
:1006E000089540E0682F86E992E00C941803009783
:1006F00069F0FC0101900020E9F73197AF01481B38
:10070000590BBC0186E992E00C948C0080E090E0EB
:1007100008958F929F92AF92BF920F931F93CF93A2
:10072000DF93CDB7DEB7A1970FB6F894DEBF0FBE4B
:10073000CDBF19A2423008F44AE08E010F5D1F4F71
:10074000842E912CA12CB12CA50194010E94BC0DEA
:10075000E62FB901CA0101501109EA3014F4E05D35
:1007600001C0E95CD801EC93232B242B252B61F7E6
:10077000C8010E947703A1960FB6F894DEBF0FBEA2
:10078000CDBFDF91CF911F910F91BF90AF909F9000
:100790008F90089581E00E9471038BE39FE10197A0
:1007A000F1F70895FC01808580FD04C082FB882755
:1007B00080F9089580E008950C947703643008F080
:1007C00063E09091A902691710F06FEF690FE62FAF
:1007D000F0E0EA56FD4F9489890F80680C9471030C
:1007E000CF92DF92EF92FF926C01990FEE08FF0813
:1007F000F7FE16C041E06DE286E992E00E94180320
:1008000066277727CB016C197D098E099F094AE07D
:100810000E9489030196FF90EF90DF90CF9008959A
:100820004AE0C701B601FF90EF90DF90CF900C94A3
:1008300089038F929F92AF92BF92CF92DF92EF92F5
:10084000FF920F931F93CF93DF936B017C01142FC3
:100850009B01AC010E942B10882319F084EC91E0DD
:1008600027C046015701E894B7F82FEF3FEF4FE755
:100870005FE7C501B4010E942B1081110DC02FEF5D
:100880003FEF4FE75FE7C501B4010E945A0E18160B
:100890001CF488EC91E00CC02FEF3FEF4FE75FE4D2
:1008A000C701B6010E94B90F181684F48CEC91E0D0
:1008B000DF91CF911F910F91FF90EF90DF90CF903C
:1008C000BF90AF909F908F900C9477032FEF3FEFE6
:1008D0004FE75FECC701B6010E945A0E87FDE6CFD5
:1008E00020E030E0A901C701B6010E945A0E87FF3F
:1008F0000DC041E06DE286E992E00E941803F7FA2C
:10090000F094F7F8F094C1E0D0E002C0C0E0D0E08D
:1009100000E060E070E080E09FE3101741F020E02D
:1009200030E040E251E40E945F0E0F5FF6CFA70176
:1009300096010E94EE0D6B017C010E94D80E4B01C6
:100940005C014AE00E948903C80FD91F1123B9F145
:10095000C501B4010E94070F9B01AC01C701B6019C
:100960000E94ED0D6B017C0141E06EE286E992E0B0
:100970000E941803219620E030E040E251E4C701D4
:10098000B6010E94BE0F4B015C010E94D80E6B01A4
:10099000E12CF12C4AE0C701B6010E948903C80F7F
:1009A000D91FC701B6010E94070F9B01AC01C50109
:1009B000B4010E94ED0D6B017C011150E1F6CE01F6
:1009C000DF91CF911F910F91FF90EF90DF90CF902B
:1009D000BF90AF909F908F900895833081F028F45E
:1009E000813099F08230A1F008958730A9F08830E5
:1009F000B9F08430D1F4809180008F7D03C0809164
:100A000080008F7780938000089584B58F7702C02F
:100A100084B58F7D84BD08958091B0008F7703C029
:100A20008091B0008F7D8093B00008951F93CF9385
:100A3000DF93282F30E0F901E255FF4F8491F9014F
:100A4000E656FF4FD491F901EA57FF4FC491CC23EA
:100A5000C1F0162F81110E94ED04EC2FF0E0EE0F93
:100A6000FF1FE458FF4FA591B4919FB7F89411115F
:100A700004C08C91D095D82302C0EC91DE2BDC937E
:100A80009FBFDF91CF911F910895CF93DF9390E0A7
:100A9000FC01E656FF4F2491FC01EA57FF4F849179
:100AA000882361F190E0880F991FFC01EE58FF4FF9
:100AB000C591D491FC01E458FF4FA591B491611107
:100AC00009C09FB7F8948881209582238883EC9190
:100AD0002E230BC0623061F49FB7F8948881322FC7
:100AE000309583238883EC912E2B2C939FBF06C0D7
:100AF0008FB7F894E8812E2B28838FBFDF91CF9199
:100B00000895CF93DF93823028F09091A5029860EA
:100B10009093A5028093A9021092AA0280E4809388
:100B2000AB0280E18093AC0280E58093AD0261E08E
:100B300080919A020E94450580919B028F3F19F097
:100B400061E00E94450561E080919C020E9445059C
:100B5000C6E9D2E09E01265932408091A50284FD6B
:100B600003C084E090E002C088E090E0219628175E
:100B700039072CF461E08E810E944505EBCF8BE3B1
:100B80009DE00197F1F760E080919A020E941605BE
:100B900060E080919C020E94160580919B028F3F2D
:100BA00019F060E00E9416058091A50284FD20C026
:100BB00063E086E992E00E94EB02CBE4D6E4CE014A
:100BC0000197F1F763E086E992E00E94EB0221973A
:100BD000F1F763E086E992E00E94EB0283E592E0A0
:100BE0000197F1F762E086E992E00E94EB0215C0FE
:100BF00080620E9471038BE496E40197F1F7809183
:100C0000A50280620E94710383E592E00197F1F7EB
:100C10008091A50280620E9471038091A50280628A
:100C20000E94710384E08093A6028CE00E9471030D
:100C30000E94CA0382E08093A70286E0DF91CF91F1
:100C40000C9471031F93CF93DF93182FEB0161E096
:100C50000E944505209711F460E004C0CF3FD10504
:100C600039F461E0812FDF91CF911F910C9416052B
:100C7000E12FF0E0E255FF4FE491E330F9F048F462
:100C8000E130B9F0E230A1F584B5806284BDC8BD21
:100C900034C0E730E9F0E83019F1E43049F58091EB
:100CA0008000806280938000D0938B00C0938A0084
:100CB00024C084B5806884BDC7BD1FC080918000FA
:100CC000806880938000D0938900C093880015C00D
:100CD0008091B00080688093B000C093B3000DC0D5
:100CE0008091B00080628093B000C093B40005C0D2
:100CF000C038D1050CF0B5CFAFCFDF91CF911F91A8
:100D000008952FB7F8946091F5017091F6018091E4
:100D1000F7019091F8012FBF0895CF93DF93EC0175
:100D2000698718860E942202882319F088858360CB
:100D300088870E9481066A837B838C839D83DF91F1
:100D4000CF910895CF92DF92EF92FF921F93CF93AE
:100D5000DF93EC0188858B7F8887CE010E94220279
:100D6000182F888586958170181759F00E94810682
:100D70006A837B838C839D83988582E0892788871B
:100D80002AC00E948106CA80DB80EC80FD80AB0116
:100D9000BC014C195D096E097F098E819F81A0E01D
:100DA000B0E0481759076A077B07A8F0888581706B
:100DB000181789F00E9481066A837B838C839D8348
:100DC000988581E08927846088870E9481066A87E8
:100DD0007B878C879D87888582FB882780F9DF91B8
:100DE000CF911F91FF90EF90DF90CF900895CF9318
:100DF000DF93CDB7DEB7C454D1090FB6F894DEBF88
:100E00000FBECDBF789484B5826084BD84B5816007
:100E100084BD85B5826085BD85B5816085BD8091C5
:100E20006E00816080936E0010928100809181003D
:100E30008260809381008091810081608093810035
:100E4000809180008160809380008091B1008460F7
:100E50008093B1008091B00081608093B000809158
:100E60007A00846080937A0080917A008260809317
:100E70007A0080917A00816080937A0080917A0074
:100E8000806880937A001092C100E0910902F0918D
:100E90000A0282E08083E0910502F091060210824E
:100EA000E0910702F09108028FEC8083109211020A
:100EB000E0910D02F0910E0286E08083E0910B023A
:100EC000F0910C02808180618083E0910B02F091AF
:100ED0000C02808188608083E0910B02F0910C020B
:100EE000808180688083E0910B02F0910C02808108
:100EF0008F7D808382E00E9481050E94CA0360E0AA
:100F000088E00E94450560E089E00E94450560E0B8
:100F10008AE00E94450560E08DE00E94450568E09A
:100F200070E088ED92E00E948D0605E010E01093DD
:100F3000DF020093DE0269E070E08AEC92E00E943A
:100F40008D061093D1020093D0026AE070E08CEB22
:100F500092E00E948D061093C3020093C2026DE0DE
:100F600070E08EEA92E00E948D061093B502009325
:100F7000B40261E085E00E94450561E086E00E94E0
:100F8000450561E08FE00E94450560E070E085E086
:100F90000E94220660E070E086E00E94220660E087
:100FA0008FE00E94160561E080E10E9445052091D6
:100FB00037012CAB809138018DAB909139019EABFC
:100FC00060903A0110913B0100913C0170903D010D
:100FD0002FAB88AF99AF6AAE1BAF0CAF7DAE2EAF13
:100FE0008FAF21969FAF219722966FAE22972396BF
:100FF0001FAF239724960FAF249725967FAE259792
:101000000E948106C090D201D090D301E090D4011B
:10101000F090D501DC01CB018C199D09AE09BF0907
:10102000893E9340A105B10500F10E9481066093BD
:10103000D2017093D3018093D4019093D501809114
:10104000D0019091D101892B39F481E090E0909307
:10105000D1018093D00104C01092D1011092D0012F
:101060006091D00180E10E9416050E9412028091D9
:10107000E6019091E701009759F48091EC0190917D
:10108000ED01892B39F41092DD011092DC010EC0C4
:10109000019731F08091EC019091ED01019731F4CD
:1010A00081E090E09093DD018093DC0188ED92E097
:1010B0000E94D203882381F00E940E0280910601D3
:1010C0009091070101968730910511F481E090E03D
:1010D000909307018093060180910601909107018A
:1010E0008330910509F44EC23CF48130910571F0D2
:1010F000029709F4CAC1D8C38530910509F40AC31F
:101100000CF491C2069709F479C3CEC38AE0EEE3EA
:10111000F1E0DE01519601900D928A95E1F78AE0A7
:10112000E8E4F1E0DE01119601900D928A95E1F775
:1011300085E0E2E5F1E0DE01989601900D928A9556
:10114000E1F785E0E7E5F1E0DE015D9601900D92C3
:101150008A95E1F78EAD89AB9FAD9AAB21962FAD05
:1011600021972BAB22968FAD22978DA723969FAD0B
:1011700023979EA724962FAD24972FA725968FAD52
:10118000259788AB80E480937C0080917A0080640E
:1011900080937A0080917A0086FDFCCF6091780080
:1011A0008091790070E0782B072E000C880B990B4A
:1011B0000E94090F20E030E040EA50E40E94BE0F98
:1011C00020E030EC4FE754E40E945F0E2AE037ED58
:1011D00043E25CE30E945F0E6B017C016093DE01E1
:1011E0007093DF018093E0019093E1018090000112
:1011F00090900101A0900201B0900301A50194011B
:101200000E945A0E87FF5DC08091EE019091EF0120
:101210008130910509F0D0C09093DB018093DA0111
:101220002091DC013091DD018091E6019091E70190
:10123000232B81F58130910569F56091040170914E
:101240000501072E000C880B990B0E94090F1B014A
:101250002C01A7019601C501B4010E94ED0D9B016F
:10126000AC01C201B1010E94BE0F0E94D10E9B01D0
:10127000AC01A6E4B0E00E94B10D24E630E040E00D
:1012800050E00E94920DCA01B9010E94090F0E940C
:10129000D10E11C0019709F08FC02091E401309167
:1012A000E5014FEF429FC001439F900D112464E67A
:1012B00070E00E94301085E00E94220660E070E03D
:1012C00078C0A5019401C701B6010E94B90F181694
:1012D0000CF072C08091EE019091EF01019709F03E
:1012E0006BC01092DB011092DA01609104017091E1
:1012F0000501072E000C880B990B0E94090F1B019A
:101300002C01A5019401C701B6010E94EE0D9B01BD
:10131000AC01C201B1010E94BE0F0E94D10E9B011F
:10132000AC01A7ECB0E00E94B10D24E630E040E053
:1013300050E00E94920DCA01B901685C7F4F8F4F47
:101340009F4F0E94090F6B017C016093D60170933F
:10135000D7018093D8019093D9012091DC0130917D
:10136000DD018091EC019091ED01232B69F4813036
:10137000910551F460E070E085E00E942206C7010B
:10138000B6010E94D10E15C00197B1F460E070E083
:1013900085E00E9422062091EA013091EB014FEF97
:1013A000429FC001439F900D112464E670E00E94AB
:1013B000301086E00E94220660E080E00E94DE039A
:1013C000CE0141960E94DC0360E084E00E94DE03CF
:1013D00060910001709101018091020190910301DF
:1013E00041E00E94190461E080E00E94DE03CE012A
:1013F00001960E94DC0361E084E00E94DE036091BC
:10140000DE017091DF018091E0019091E10141E006
:101410000E9419048091EE019091EF01019701F56E
:101420008091DC019091DD01892BA9F48091DA0192
:101430009091DB0160E0019731F48CE00E94DE03C3
:10144000CE01889605C08CE00E94DE03CE014D9649
:101450000E94DC0305C08091E6019091E701EACF8C
:101460008091EE019091EF0161E0892B31F48CE0E5
:101470000E94DE03CE018D9605C08CE00E94DE0343
:10148000CE01C1960E94DC030FC28EE0ECE5F1E0D4
:10149000DE01119601900D928A95E1F785E0EAE66A
:1014A000F1E0DE01519601900D928A95E1F760E03E
:1014B00080E00E94DE03CE0101960E94DC0361E021
:1014C00080E00E94DE03CE0141960E94DC0361E0D1
:1014D00084E00E94DE03609100017091010180911F
:1014E00002019091030141E00E9419040E9406024A
:1014F0008823C1F00E940E0220E030E040E85FE364
:1015000060910001709101018091020190910301AD
:101510000E94EE0D6093000170930101809302011F
:10152000909303010E940202882309F4BDC10E9426
:101530000E0220E030E040E85FE36091000170912E
:10154000010180910201909103010E94ED0D6B0158
:101550007C0120E030E0A9010E945A0E87FD09C0FD
:10156000C0920001D0920101E0920201F0920301C9
:101570009BC1109200011092010110920201109281
:10158000030192C18EE0EFE6F1E0DE0111960190D9
:101590000D928A95E1F785E0EDE7F1E0DE015196E5
:1015A00001900D928A95E1F760E080E00E94DE03F1
:1015B000CE0101960E94DC0361E080E00E94DE0320
:1015C000CE0141960E94DC0361E084E00E94DE03CC
:1015D00080910401909105010E94F0030E9406028F
:1015E000882359F00E940E02809104019091050118
:1015F000019690930501809304010E9402028823C2
:1016000009F452C10E940E028091040190910501DB
:1016100001971816190614F081E090E090930501E7
:101620008093040141C18EE0E2E8F1E0DE01119611
:1016300001900D928A95E1F787E0E0E9F1E0DE01A3
:10164000519601900D928A95E1F79FA998A728AD30
:1016500029A789AD8AA79AAD9D8F2BAD2E8F8CAD12
:101660008F8F9DAD98A360E080E00E94DE03CE01E5
:1016700001960E94DC0361E080E00E94DE03CE015F
:1016800041960E94DC0361E085E00E94DE03E09069
:10169000E601F090E701CE0121E0E216F104D9F471
:1016A00088960E94DC0361E08BE00E94DE0380915B
:1016B000E4019091E5010E94F0030E94B2010E94B2
:1016C000FE01882359F08091E2019091E301892B7A
:1016D00009F4EDC003C04D960E94DC030E9406028F
:1016E000882361F00E940E0281E090E09093E70170
:1016F0008093E6011092ED011092EC010E9402022B
:10170000882309F4D1C00E940E021092E7011092C2
:10171000E601CAC08EE0E2E8F1E0DE011196019038
:101720000D928A95E1F786E0E7E9F1E0DE01519656
:1017300001900D928A95E1F79CA998A72DA929A758
:101740008EA98AA76D8E1E8F0F8F78A260E080E031
:101750000E94DE03CE0101960E94DC0361E080E07E
:101760000E94DE03CE0141960E94DC0361E084E02A
:101770000E94DE03E090EC01F090ED0191E0E916AB
:10178000F104E1F4CE0188960E94DC0361E08BE075
:101790000E94DE038091EA019091EB010E94F00328
:1017A0000E94B2010E94FE01882361F08091E8014D
:1017B0009091E901892B09F4D8C004C0CE014D965F
:1017C0000E94DC030E940602882361F00E940E0240
:1017D00081E090E09093ED018093EC011092E7019D
:1017E0001092E6010E940202882309F45DC00E9463
:1017F0000E021092ED011092EC0156C080E1EDE96D
:10180000F1E0DE01119601900D928A95E1F78BE0EF
:10181000EDEAF1E0DE015D9601900D928A95E1F727
:101820008CE0E8EBF1E0DE01519601900D928A9593
:10183000E1F760E080E00E94DE03CE0101960E94A5
:10184000DC038091EE019091EF01019759F461E082
:101850008FE00E94160561E080E00E94DE03CE0169
:101860004D960AC060E08FE00E94160561E080E0BE
:101870000E94DE03CE0141960E94DC030E94060214
:10188000882341F00E940E0281E090E09093EF01E6
:101890008093EE010E940202882331F00E940E0222
:1018A0001092EF011092EE010E948E01A9CBF092EE
:1018B000E301E092E2018091E2019091E30101975E
:1018C00009F00CCF0E94120261E089E00E94DE0361
:1018D00084E391E00E94DC030E9406028823B1F0B9
:1018E0008091E2019091E301019781F48091E401FC
:1018F0009091E50105968536910514F084E690E017
:101900009093E5018093E4010E94B2010E940202DB
:10191000882399F08091E2019091E301019769F4A5
:101920008091E4019091E501059797FF19C010920D
:10193000E5011092E4010E94B2010E94FE01882399
:1019400009F4B9CF8091E2019091E301019709F088
:10195000B2CF0E940E021092E3011092E201ABCFCF
:101960009093E5018093E401E6CFF092E901E092E3
:10197000E8018091E8019091E901019709F022CFF7
:101980000E94120261E089E00E94DE0384E391E09C
:101990000E94DC030E9406028823B1F08091E801D6
:1019A0009091E901019781F48091EA019091EB0116
:1019B00005968536910514F084E690E09093EB014E
:1019C0008093EA010E94B2010E940202882399F0EA
:1019D0008091E8019091E901019769F48091EA0111
:1019E0009091EB01059797FF19C01092EB011092AF
:1019F000EA010E94B2010E94FE01882309F4B9CFD6
:101A00008091E8019091E901019709F0B2CF0E941D
:101A10000E021092E9011092E801ABCF9093EB0116
:101A20008093EA01E6CFE9EFF1E01382128288EEBB
:101A300093E0A0E0B0E084839583A683B7838CE035
:101A400091E09183808385EC90E09587848784EC96
:101A500090E09787868780EC90E0918B808B81EC7B
:101A600090E0938B828B82EC90E0958B848B86EC5C
:101A700090E0978B868B118E128E138E148EE6E972
:101A8000F2E0138212828EE191E0918380838CE0F8
:101A900084838FEF85838BE0868387E0878384E070
:101AA000808783E0818782E082871386148615868B
:101AB0001686178681E00E948105E8EDF2E02AE2B1
:101AC00031E03183208312821382148215828AE0EE
:101AD00090E09783868310861186EAECF2E03183EA
:101AE0002083128213821482158297838683108644
:101AF0001186ECEBF2E03183208312821382148290
:101B000015829783868310861186EEEAF2E0318390
:101B10002083128213821482158297838683108613
:101B200011860895052E97FB1EF400940E94A90DBE
:101B300057FD07D00E94BC0D07FC03D04EF40C9457
:101B4000A90D50954095309521953F4F4F4F5F4FD0
:101B5000089590958095709561957F4F8F4F9F4F19
:101B600008950E94DE0DA59F900DB49F900DA49F37
:101B7000800D911D11240895A1E21A2EAA1BBB1BF2
:101B8000FD010DC0AA1FBB1FEE1FFF1FA217B30749
:101B9000E407F50720F0A21BB30BE40BF50B661F5F
:101BA000771F881F991F1A9469F760957095809523
:101BB00090959B01AC01BD01CF010895A29FB0019A
:101BC000B39FC001A39F700D811D1124911DB29F71
:101BD000700D811D1124911D08955058BB27AA270F
:101BE0000E94050E0C947F0F0E94710F38F00E9426
:101BF000780F20F039F49F3F19F426F40C946E0FFF
:101C00000EF4E095E7FB0C94680FE92F0E94900F0B
:101C100058F3BA17620773078407950720F079F421
:101C2000A6F50C94B20F0EF4E0950B2EBA2FA02D52
:101C30000B01B90190010C01CA01A0011124FF2779
:101C4000591B99F0593F50F4503E68F11A16F04074
:101C5000A22F232F342F4427585FF3CF4695379573
:101C60002795A795F0405395C9F77EF41F16BA0B38
:101C7000620B730B840BBAF09150A1F0FF0FBB1FE6
:101C8000661F771F881FC2F70EC0BA0F621F731F2F
:101C9000841F48F4879577956795B795F7959E3F8C
:101CA00008F0B0CF9395880F08F09927EE0F97951D
:101CB000879508950E94440F08F481E008950E94DA
:101CC000730E0C947F0F0E94780F58F00E94710FD2
:101CD00040F029F45F3F29F00C94680F51110C94E7
:101CE000B30F0C946E0F0E94900F68F39923B1F319
:101CF000552391F3951B550BBB27AA276217730732
:101D0000840738F09F5F5F4F220F331F441FAA1FC5
:101D1000A9F335D00E2E3AF0E0E832D09150504081
:101D2000E695001CCAF72BD0FE2F29D0660F771F2F
:101D3000881FBB1F261737074807AB07B0E809F015
:101D4000BB0B802DBF01FF2793585F4F3AF09E3F9A
:101D5000510578F00C94680F0C94B30F5F3FE4F3D7
:101D6000983ED4F3869577956795B795F7959F5FDD
:101D7000C9F7880F911D9695879597F90895E1E029
:101D8000660F771F881FBB1F621773078407BA0788
:101D900020F0621B730B840BBA0BEE1F88F7E095E3
:101DA00008950E94D80E6894B1110C94B30F089551
:101DB0000E94980F88F09F5798F0B92F9927B75134
:101DC000B0F0E1F0660F771F881F991F1AF0BA95DF
:101DD000C9F714C0B13091F00E94B20FB1E008957C
:101DE0000C94B20F672F782F8827B85F39F0B93F6E
:101DF000CCF3869577956795B395D9F73EF4909592
:101E00008095709561957F4F8F4F9F4F0895E8940F
:101E100009C097FB3EF490958095709561957F4F32
:101E20008F4F9F4F9923A9F0F92F96E9BB279395E0
:101E3000F695879577956795B795F111F8CFFAF4F0
:101E4000BB0F11F460FF1BC06F5F7F4F8F4F9F4F21
:101E500016C0882311F096E911C0772321F09EE87F
:101E6000872F762F05C0662371F096E8862F70E0E5
:101E700060E02AF09A95660F771F881FDAF7880FBF
:101E80009695879597F90895990F0008550FAA0B15
:101E9000E0E8FEEF16161706E807F907C0F012167D
:101EA0001306E407F50798F0621B730B840B950B80
:101EB00039F40A2661F0232B242B252B21F40895D5
:101EC0000A2609F4A140A6958FEF811D811D089572
:101ED00097F99F6780E870E060E008959FEF80ECDD
:101EE000089500240A941616170618060906089580
:101EF00000240A9412161306140605060895092EE6
:101F00000394000C11F4882352F0BB0F40F4BF2B54
:101F100011F460FF04C06F5F7F4F8F4F9F4F089594
:101F200057FD9058440F551F59F05F3F71F047958A
:101F3000880F97FB991F61F09F3F79F0879508956F
:101F4000121613061406551FF2CF4695F1DF08C08E
:101F5000161617061806991FF1CF869571056105AB
:101F600008940895E894BB2766277727CB0197F953
:101F700008950E94440F08F48FEF08950E94D10F36
:101F80000C947F0F0E94710F38F00E94780F20F0A0
:101F9000952311F00C94680F0C946E0F11240C947F
:101FA000B30F0E94900F70F3959FC1F3950F50E00F
:101FB000551F629FF001729FBB27F00DB11D639FFB
:101FC000AA27F00DB11DAA1F649F6627B00DA11DA1
:101FD000661F829F2227B00DA11D621F739FB00D47
:101FE000A11D621F839FA00D611D221F749F3327B7
:101FF000A00D611D231F849F600D211D822F762F50
:102000006A2F11249F5750409AF0F1F088234AF02C
:10201000EE0FFF1FBB1F661F771F881F9150504098
:10202000A9F79E3F510580F00C94680F0C94B30FF4
:102030005F3FE4F3983ED4F3869577956795B7951F
:10204000F795E7959F5FC1F7FE2B880F911D969539
:10205000879597F908950E94440F880B990B08956E
:1020600097FB072E16F4009407D077FD09D00E9445
:10207000441007FC05D03EF4909581959F4F08953C
:10208000709561957F4F0895AA1BBB1B51E107C056
:10209000AA1FBB1FA617B70710F0A61BB70B881FF8
:1020A000991F5A95A9F780959095BC01CD01089587
:1020B000EE0FFF1F0590F491E02D099481E090E070
:0A20C000F8940C946310F894FFCF1D
:1020CA000000E0410F000100000000001F018C0029
:1020DA00B6006C01E700C500D900000000006B03E0
:1020EA008C00990198010000000022020A022520B2
:1020FA00200025002D3E004F4E004F46460053500B
:10210A003A2020202020430050563A202020202028
:10211A004300486561740046616E20004E65772071
:10212A0053657420506F696E740053503A20004E04
:10213A0065772050726F70204761696E004B703A64
:10214A00200020204D616E75616C204D6F64650022
:10215A00486561743A200046616E3A2000202044A6
:10216A007269766572205374617475730020202039
:10217A0020456E61626C65002020202044697361ED
:10218A00626C65006E616E00696E66006F7666004D
:00000001FF
